S0110000616C6C696761746F722E7372656354
S11300000C9434000C9451000C9451000C94510045
S11300100C9451000C9451000C9451000C94510018
S11300200C9451000C9451000C9451000C94510008
S11300300C9451000C9451000C9451000C945100F8
S11300400C9451000C9451000C9451000C945100E8
S11300500C9451000C9451000C9451000C945100D8
S11300600C9451000C94510011241FBECFEFD8E022
S1130070DEBFCDBF11E0A0E0B1E0EAE8F1E002C0EC
S113008005900D92A630B107D9F721E0A6E0B1E0C2
S113009001C01D92A630B207E1F70E949E000C94A5
S11300A0C3000C9400008F708068E1E6F0E090E8F3
S11300B0908380830895CF93E2EFF0E080818460A1
S11300C0C0E8C08380838FEF98E00197F1F700C008
S11300D0000080818F798062C083808300000000EB
S11300E081E090E00E945300E0EFF0E080818260C4
S11300F0C0838083CF9108951092C00086E08093DE
S1130100C20088E18093C1001092C50084E080930E
S1130110C40008959091C00095FFFCCF8093C60061
S11301200895CF93DF93EC0103C021960E948A00C7
S113013088818111FACFDF91CF9108950E945B00ED
S11301400E947C008AB182608AB982E08BB98FEF09
S113015084B981E085B92FEF8FE09EE02150804083
S11301609040E1F700C0000015B880E091E00E94E3
S113017091002FEF8FE09EE0215080409040E1F706
S10D018000C00000F2CFF894FFCF96
S109018A61740D0A00007F
S9030000FC
