:100000000C9434000C94E6040C9451000C945100B0
:100010000C9451000C9451000C94BC030C945100AE
:100020000C9451000C9451000C9451000C9451000C
:100030000C9451000C9451000C9451000C945100FC
:100040000C9451000C9451000C94B3020C94510088
:100050000C94D5020C9451000C9451000C94510056
:100060000C9451000C94510011241FBECFEFD8E026
:10007000DEBFCDBF15E0A0E0B1E0E8E1FAE102C0EB
:1000800005900D92A83CB107D9F726E0A8ECB5E0A1
:1000900001C01D92AC3EB207E1F70E94FB030C9435
:1000A0000A0D0C9400000F931F93CF93DF93CDB7ED
:1000B000DEB7C058D1090FB6F894DEBF0FBECDBF72
:1000C0008E010F5F1F4F80E8F80111928A95E9F7C2
:1000D00040E850E0B8018AE491E00E948C05FFEF0F
:1000E0002FE388E3F15020408040E1F700C000009A
:1000F00040E850E0B80184E691E00E948C0540E8B9
:1001000050E0B80180E092E00E948C0540E850E0A9
:10011000B8018BE092E00E948C05882339F040E81A
:1001200050E0B8018FE292E00E948C05C058DF4F8A
:100130000FB6F894DEBF0FBECDBFDF91CF911F91F8
:100140000F910895CF92DF92FF920F931F93CF9359
:10015000DF93CDB7DEB7DA950FB6F894DEBF0FBEEA
:10016000CDBFF82E092FCE0101966C0180E8D60193
:100170001D928A95E9F741E552E0FE01EF57FF4FE6
:1001800020E030E0CF01DA011D91AD01112339F0FB
:100190002F37310521F011932F5F3F4FF4CFEF2D13
:1001A000F02F8C01020F131F4191442349F02F3788
:1001B000310531F0D8014D938D012F5F3F4FF4CFC2
:1001C000E7E6F2E08C01020F131F4191442349F04E
:1001D0002F37310531F0D8014D938D012F5F3F4FFF
:1001E000F4CFFB01BC01620F731F4191442349F01E
:1001F0002F37310531F0DB014D93BD012F5F3F4FAC
:10020000F4CFFC01E20FF31F22E22083118240E8C9
:1002100050E0B6010E948C05D3950FB6F894DEBF6E
:100220000FBECDBFDF91CF911F910F91FF90DF9057
:10023000CF9008952F923F924F925F926F927F924C
:100240008F929F92AF92BF92CF92DF92EF92FF92E6
:100250000F931F93CF93DF93CDB7DEB7DA950FB629
:10026000F894DEBF0FBECDBF982E892E2A013B0128
:100270008E010F5F1F4F80E8F80111928A95E9F710
:10028000CB01BA010E9441086B017C015B01072E82
:10029000000C880B990B0E9479089B01AC01C301EB
:1002A000B2010E94CF0720E030E048EC52E40E9407
:1002B00029090E9441089B0177FF04C022273327A8
:1002C000261B370B322E232E20E030E0A901C3017C
:1002D000B2010E943C0887FF02C0AB2819F080E5FC
:1002E00092E002C08AE793E02F923F92DF92CF9292
:1002F0009F938F938F929F928BE692E09F938F9321
:100300001F9280E88F937E01F1E8EF0EF11CFF92BF
:10031000EF920E94120A40E850E0B801C7010E9423
:100320008C050FB6F894DEBF0FBECDBFD3950FB6C8
:10033000F894DEBF0FBECDBFDF91CF911F910F911B
:10034000FF90EF90DF90CF90BF90AF909F908F90F5
:100350007F906F905F904F903F902F9008950F93F4
:100360001F93CF93DF93CDB7DEB7C058D1090FB637
:10037000F894DEBF0FBECDBF8E010F5F1F4F80E828
:10038000F80111928A95E9F740E850E0B8018AEE49
:1003900092E00E948C0540E850E0B80188EF92E0BE
:1003A0000E948C0540E850E0B80185E093E00E948F
:1003B0008C05C058DF4F0FB6F894DEBF0FBECDBF1F
:1003C000DF91CF911F910F91089580917A00806401
:1003D00080937A0080917A0086FDFCCF809178002E
:1003E0002091790090E0922B08959091AD009F7B31
:1003F0009093AD00843051F49091CC009093C8005C
:100400009091AD0090649093AD0009C0823019F4D2
:100410009091CE0002C09091CD009093C800909131
:100420007C009F7390937C00843019F480917C0051
:1004300007C020917C0030E4839FC0011124822BEF
:1004400080937C000895CF93DF93CAE7D0E080E1EA
:10045000888386E080937C0081E088830E94F50198
:10046000888180688883DF91CF9108950F931F93CF
:10047000CF93DF93CDE7D0E08881806288830E94AC
:10048000E5018C0188818F7D88830E94E501969526
:10049000879516950795800F911F9C01220F232F9A
:1004A000221F330B3195821B930BDF91CF911F914C
:1004B0000F910895ECE7F0E09081907E9083908119
:1004C0008F71982B90830C943602E2EFF0E08081DC
:1004D000846090E890838083AFEFB8E01197F1F7E4
:1004E00000C0000080818F7980629083808300004B
:1004F0000000E1E6F0E0908381E88083E0EFF0E047
:1005000080818260908380830895BC018091B900CE
:100510008E7F8093B9008091B9008D7F8093B90060
:1005200080E094E20E949609862F603138F07727A8
:10053000CB01409797FD0196959587958093B800DC
:10054000089584E690E00E948502ECEBF0E0808163
:10055000846080831092C80580818160808380815F
:100560008064808308951F920F920FB60F9211241A
:100570008F939F93EF93FF93E091C9058091C600FD
:10058000F0E0E852FA4F80838091C90590E001962F
:100590008F7799278093C905FF91EF919F918F9154
:1005A0000F900FBE0F901F9018951F920F920FB6CD
:1005B0000F9211240F900FBE0F901F90189510925C
:1005C000C00086E08093C20088ED8093C100109245
:1005D000C50084E08093C4000895FC01219122238A
:1005E00039F03091C00035FFFCCF2093C600F6CF24
:1005F0002091C00025FFFCCF2DE02093C600E8ED40
:10060000F6E020E030E0DC014D91CD01442331F0F3
:1006100041932F5F3F4F23313105A9F7F901E8528C
:10062000F94F1082BFEF2FEC82E0B15020408040A4
:10063000E1F700C000000895FC019C01260F371F60
:10064000E217F30711F01192FBCF20E030E0F091B8
:10065000CA05E091C905FE130FC02417350764F4DD
:10066000AFEFEFECF2E0A150E040F040E1F700C066
:1006700000002C593F4FEBCF20E030E06150710972
:100680005091CA054091C905541719F1261737072B
:1006900000F5E091CA05F0E0E852FA4F40814D3094
:1006A00071F0E091CA05DC01A20FB31F2F5F3F4F2D
:1006B000E091CA05F0E0E852FA4F40814C93409136
:1006C000CA0550E04F5F5F4F4F7755274093CA05EB
:1006D000D7CFFC01E20FF31F1082089581E0089547
:1006E00080E0089581E00895CF93DF93EC0162E10B
:1006F00073E088ED96E00E94F009892BF9F06DE136
:1007000073E0CE010E94F009892BC1F46BE273E023
:10071000CE010E94F009892B79F46AE373E0CE01DF
:100720000E94F009892B51F468E473E0CE010E9425
:10073000F00921E0892B19F420E001C021E0822F8B
:10074000DF91CF910895E8EDF6E001900020E9F700
:100750003197AF01485D564068ED76E086E593E05D
:100760000E94D309892B31F081E693E00E94ED02CB
:1007700080E0089581E008951F920F920FB60F92C6
:1007800011248F939F938091600080688093600014
:100790008091CD059091CE0501969093CE058093E2
:1007A000CD058091CB059091CC0501969093CC0519
:1007B0008093CB058091CB059091CC05853A91052E
:1007C00031F41092CC051092CB0582E00BC08091E1
:1007D000CD059091CE058E9739F41092CE051092EA
:1007E000CD0581E08093D7059F918F910F900FBE2B
:1007F0000F901F9018950E9465020E94DF020E94D0
:10080000A1021092CE051092CD051092CC05109247
:10081000CB051092D7058091F200806190E890930B
:10082000F2008093F200F894A895809160008861AE
:100830008093600084EC80936000789485E083BFAF
:100840002FEF8FE09EE0215080409040E1F700C004
:10085000000015B8519A82E08BB93B9A0E944B0573
:100860002FEF8FE99CE8215080409040E1F700C0D5
:1008700000000E94FA050E9453006BE673E08CE7CB
:1008800093E00E94A2002FEF8FE19CE12150804075
:100890009040E1F700C000000E94AF010E9457079E
:1008A000FDCF9091BC009E7F9093BC009091BC00C6
:1008B0009F70906A9093BC009091BC0097FFFCCF12
:1008C0009AE29093BB009091BC009F7090689093C7
:1008D000BC009091BC0097FFFCCF8093BB0080913F
:1008E000BC008F7080688093BC008091BC0087FF43
:1008F000FCCF6093BB008091BC008F7080688093B8
:10090000BC008091BC0087FFFCCF8091BC008F7041
:10091000806D8093BC008091BC0084FFFCCF089563
:100920009091BC009E7F9093BC009091BC009F7002
:10093000906A9093BC009091BC0097FFFCCF9AE224
:100940009093BB009091BC009F7090689093BC0006
:100950009091BC0097FFFCCF8093BB008091BC00BE
:100960008F7080688093BC008091BC0087FFFCCFB3
:100970008091BC008F70806A8093BC008091BC0025
:1009800087FFFCCF8BE28093BB008091BC008F700F
:1009900080688093BC008091BC0087FFFCCF809171
:1009A000BC008F7080688093BC008091BC0087FF82
:1009B000FCCF8091BB009091BC009F70906D909394
:1009C000BC009091BC0094FFFCCF08951F920F9241
:1009D0000FB60F9211242F933F934F935F936F9312
:1009E0007F938F939F93AF93BF93EF93FF9368E9A8
:1009F00073E08CE793E00E94A20080E00E949004E4
:100A00006FEC80E00E9451042D9A2FEF8FEC92E062
:100A1000215080409040E1F700C000002D98E09AFE
:100A2000FF91EF91BF91AF919F918F917F916F91C6
:100A30005F914F913F912F910F900FBE0F901F909C
:100A4000189589E00E949004682F880F770B880B17
:100A5000990B0E94790829E134E046E15FE30E94A6
:100A6000290920E030E048EC51E40E94D0070895C5
:100A70002D9A0E9423028FE794E00197F1F700C0BE
:100A8000000086E00E945A02EAE7F0E020812F771A
:100A900020832D980895439A2FEF8FED90E12150F8
:100AA00080409040E1F700C0000043982FEF8FE9AD
:100AB0009CE8215080409040E1F700C0000008957C
:100AC00063EA73E00E94F009009721F1FC0125819F
:100AD0002A33F1F407960E94AA09E0E0F1E020E051
:100AE00030E0408151818417950759F4220F331F5C
:100AF000220F331FF901E050FF4F0280F381E02DF8
:100B000009942F5F3F4F34962A30310551F702C0C8
:100B10000C94720381E008950F931F93CF93DF939A
:100B2000EB018A010E94ED0248EB5BE0B801CE01C7
:100B30000E941C0369EA73E0CE010E94F009892B30
:100B400009F443C062E173E088ED96E00E94F00989
:100B5000892BC1F46CEA73E088ED96E00E94F009FD
:100B6000892B81F467EB73E088ED96E00E94F00931
:100B7000892B41F460EC73E088ED96E00E94F00967
:100B8000892B91F16CEC73E0CE010E94F009892B66
:100B900071F069EB73E0CE010E94F009892B39F006
:100BA00061ED73E0CE010E94F009892B31F440E23F
:100BB0005EE4B801CE010E941C03B801CE01DF91B2
:100BC000CF911F910F910C94740368ED73E0CE01E7
:100BD0000E94F009892B41F4B801CE01DF91CF9139
:100BE0001F910F910C94600581E0DF91CF911F91CF
:100BF0000F9108950F931F93CF93DF93CDB7DEB777
:100C0000C058D1090FB6F894DEBF0FBECDBF8E011C
:100C10000F5F1F4F80E8F80111928A95E9F740E8CD
:100C200050E0B80180EE93E00E948C0540E850E06F
:100C3000B80185EE93E00E948C0540E850E0B801D1
:100C40008BEE93E00E948C0540E850E0B80189EFFC
:100C500093E00E948C0540E850E0B8018FE194E0F9
:100C60000E948C05C058DF4F0FB6F894DEBF0FBE50
:100C7000CDBFDF91CF911F910F9108955F926F9239
:100C80007F928F929F92AF92BF92CF92DF92EF921C
:100C9000FF920F931F93CF93DF93CDB7DEB7C0586A
:100CA000D1090FB6F894DEBF0FBECDBFCE010196BD
:100CB0007C0180E8F70111928A95E9F740E850E05D
:100CC000B7018BE295E00E948C05FFEF2FE18CE1EC
:100CD000F15020408040E1F700C0000040E850E0C3
:100CE000B70181E693E00E948C0505E010E040E842
:100CF00050E0B70185E495E00E948C05582E8823CA
:100D000009F4AFC062E575E0C7010E94F0090097E1
:100D100009F4A7C06CE270E00A960E94C809009727
:100D200051F540E850E0B7018AE491E00E948C055B
:100D30009FEFEFE1FCE19150E040F040E1F700C0AF
:100D400000008091D0058F938091CF058F938CE523
:100D500095E09F938F931F9282E28F9388E291E0B8
:100D60009F938F930E94120A0FB6F894DEBF0FBEB6
:100D7000CDBF512C84C05C01EFEFAE1ABE0A6CE20D
:100D800070E0C5010E94C809009759F24C018A1809
:100D90009B086C01FFEFCF1ADF0A6CE270E0C6011E
:100DA0000E94C809009709F4BCCF3C016C187D086B
:100DB000C4010296860D971D829708F052C080915B
:100DC000D0058F938091CF058F9388E695E09F9310
:100DD0008F931F9282E28F9388E291E09F938F938B
:100DE0000E94120A8C01A401B501885D9E4F0E94E9
:100DF000E109080D191DF801E85DFE4F8CE28083C2
:100E00000F5F1F4FA301B601C801885D9E4F0E946E
:100E1000E109060D171D8CE194E09F938F9382E208
:100E200090E0801B910B9F938F93085D1E4F1F9343
:100E30000F930E94120A40E850E0B7018AE491E063
:100E40000E948C052FEF8FE19CE121508040904063
:100E5000E1F700C000000FB6F894DEBF0FBECDBFB3
:100E60000EC0FFEF2FE584E5F15020408040E1F710
:100E700000C000000150110909F039CF52CF852D73
:100E8000C058DF4F0FB6F894DEBF0FBECDBFDF9165
:100E9000CF911F910F91FF90EF90DF90CF90BF9077
:100EA000AF909F908F907F906F905F90089580910A
:100EB000D705813089F008F46EC0823049F1833063
:100EC00009F067C08091CF059091D005019690936D
:100ED000D0058093CF055DC00E9421056093D105A8
:100EE0007093D2058093D3059093D4050E94380562
:100EF0009093D6058093D5058091CF059091D0052C
:100F000001969093D0058093CF050E943E0641C084
:100F10000E9453008823D9F14091D1055091D20508
:100F20006091D3057091D4058CE695E00E941A017A
:100F30002FEF8FE19CE1215080409040E1F700C00D
:100F400000006091D5057091D60580E090E00E9488
:100F50007708AB01BC018EE895E00E941A012FEFE3
:100F60008FE398E3215080409040E1F700C00000FB
:100F700068E271E08AEA95E00E94A2002FEF8FE11B
:100F80009CE1215080409040E1F700C000000E94A9
:100F9000AF011092D70588950000000008955058C1
:100FA000BB27AA270E94E7070C94EF080E94E108DC
:100FB00038F00E94E80820F039F49F3F19F426F435
:100FC0000C94DE080EF4E095E7FB0C94D808E92FAA
:100FD0000E94000958F3BA17620773078407950740
:100FE00020F079F4A6F50C9422090EF4E0950B2E6E
:100FF000BA2FA02D0B01B90190010C01CA01A0016B
:101000001124FF27591B99F0593F50F4503E68F1C5
:101010001A16F040A22F232F342F4427585FF3CF06
:10102000469537952795A795F0405395C9F77EF4D7
:101030001F16BA0B620B730B840BBAF09150A1F020
:10104000FF0FBB1F661F771F881FC2F70EC0BA0FA6
:10105000621F731F841F48F4879577956795B7952E
:10106000F7959E3F08F0B0CF9395880F08F0992729
:10107000EE0F9795879508950E94B40808F481E0D3
:1010800008950E9448086894B1110C9423090895AA
:101090000E94080988F09F5798F0B92F9927B751F7
:1010A000B0F0E1F0660F771F881F991F1AF0BA950C
:1010B000C9F714C0B13091F00E942209B1E008953F
:1010C0000C942209672F782F8827B85F39F0B93F31
:1010D000CCF3869577956795B395D9F73EF49095BF
:1010E0008095709561957F4F8F4F9F4F0895E8943D
:1010F00009C097FB3EF490958095709561957F4F60
:101100008F4F9F4F9923A9F0F92F96E9BB2793950D
:10111000F695879577956795B795F111F8CFFAF41D
:10112000BB0F11F460FF1BC06F5F7F4F8F4F9F4F4E
:1011300016C0882311F096E911C0772321F09EE8AC
:10114000872F762F05C0662371F096E8862F70E012
:1011500060E02AF09A95660F771F881FDAF7880FEC
:101160009695879597F90895990F0008550FAA0B42
:10117000E0E8FEEF16161706E807F907C0F01216AA
:101180001306E407F50798F0621B730B840B950BAD
:1011900039F40A2661F0232B242B252B21F4089502
:1011A0000A2609F4A140A6958FEF811D811D08959F
:1011B00097F99F6780E870E060E008959FEF80EC0A
:1011C000089500240A9416161706180609060895AD
:1011D00000240A9412161306140605060895092E13
:1011E0000394000C11F4882352F0BB0F40F4BF2B82
:1011F00011F460FF04C06F5F7F4F8F4F9F4F0895C2
:1012000057FD9058440F551F59F05F3F71F04795B7
:10121000880F97FB991F61F09F3F79F0879508959C
:10122000121613061406551FF2CF4695F1DF08C0BB
:10123000161617061806991FF1CF869571056105D8
:1012400008940895E894BB2766277727CB0197F980
:1012500008950E943C090C94EF080E94E10838F0C0
:101260000E94E80820F0952311F00C94D8080C9403
:10127000DE0811240C9423090E94000970F3959F45
:10128000C1F3950F50E0551F629FF001729FBB277D
:10129000F00DB11D639FAA27F00DB11DAA1F649F19
:1012A0006627B00DA11D661F829F2227B00DA11DCC
:1012B000621F739FB00DA11D621F839FA00D611D52
:1012C000221F749F3327A00D611D231F849F600D73
:1012D000211D822F762F6A2F11249F5750409AF09C
:1012E000F1F088234AF0EE0FFF1FBB1F661F771F28
:1012F000881F91505040A9F79E3F510580F00C94F3
:10130000D8080C9423095F3FE4F3983ED4F3869504
:1013100077956795B795F795E7959F5FC1F7FE2B92
:10132000880F911D9695879597F90895AA1BBB1B69
:1013300051E107C0AA1FBB1FA617B70710F0A61BD5
:10134000B70B881F991F5A95A9F780959095BC01F6
:10135000CD010895FC0188279927E8942191203236
:10136000E9F3293010F02E30C8F32B3241F02D3242
:1013700039F4689404C00E940A0A820F911D2191D9
:1013800020532A30C0F31EF4909581959F4F089505
:10139000FC018191861721F08823D9F799270895B8
:1013A0003197CF010895FB01DC014150504030F0EE
:1013B0008D910190801919F40020B9F7881B990BC1
:1013C0000895FB01DC014150504048F001900D921E
:1013D0000020C9F701C01D9241505040E0F7089528
:1013E000FB0151915523A9F0BF01DC014D91451737
:1013F0004111E1F759F4CD010190002049F04D91E0
:1014000040154111C9F3FB014111EFCF81E090E09C
:10141000019708957AE0979F902D879F802D910DD9
:1014200011240895AEE0B0E0E8E1FAE00C94E10C9C
:101430000D891E898F89988D26E02C831A83098354
:1014400097FF02C080E090E801979E838D83AE01F4
:10145000455E5F4F698D7A8DCE0101960E94420AEA
:101460004D815E8157FD0AC02F8138854217530791
:101470000CF49A01F801E20FF31F10822E96E4E0BB
:101480000C94FD0CABE0B0E0E8E4FAE00C94D30C73
:101490006C017B018A01FC0117821682838181FF26
:1014A000CCC1CE0101963C01F6019381F70193FD79
:1014B000859193FF81917F01882309F4BAC1853218
:1014C00039F493FD859193FF81917F01853229F451
:1014D000B60190E00E94390CE7CF912C212C312CE1
:1014E000FFE1F315D8F08B3279F038F4803279F0DF
:1014F0008332A1F4232D20611DC08D3261F0803331
:1015000069F4232D216016C0832D8260382EE32DCF
:10151000E4603E2E2AC0F32DF8601DC037FC2DC0BC
:1015200020ED280F2A3040F08E32B9F436FC81C10C
:10153000232D2064322E19C036FE06C08AE0989E04
:10154000200D1124922E11C0EAE02E9E200D1124B0
:10155000222EF32DF0623F2E08C08C3621F4832D0D
:101560008068382E02C0883641F4F70193FD8591DA
:1015700093FF81917F018111B3CF982F9F7D955467
:10158000933028F40C5F1F4F9FE399830DC083367F
:1015900031F0833771F0833509F059C021C0F8016B
:1015A000808189830E5F1F4F88248394912C53017F
:1015B00013C02801F2E04F0E511CF801A080B18049
:1015C00036FE03C0692D70E002C06FEF7FEFC501EA
:1015D0000E942E0C4C018201F32DFF773F2E16C086
:1015E000280122E0420E511CF801A080B18036FE95
:1015F00003C0692D70E002C06FEF7FEFC5010E944C
:10160000230C4C01F32DF0683F2E820133FC1BC0EC
:10161000822D90E088169906B0F4B60180E290E041
:101620000E94390C2A94F4CFF50137FC859137FEDE
:1016300081915F01B60190E00E94390C21102A943B
:1016400021E0821A91088114910471F7E8C0843670
:1016500011F0893641F5F80137FE07C060817181CC
:10166000828193810C5F1F4F08C060817181072EBA
:10167000000C880B990B0E5F1F4FF32DFF763F2E4A
:1016800097FF09C090958095709561957F4F8F4F1A
:101690009F4FF0683F2E2AE030E0A3010E94750CB6
:1016A000882E861845C0853731F4232D2F7EB22E23
:1016B0002AE030E025C0932D997FB92E8F36C1F0F6
:1016C00018F4883579F0B5C0803719F0883721F0E3
:1016D000B0C0E92FE061BE2EB4FE0DC0FB2DF4605A
:1016E000BF2E09C034FE0AC0292F2660B22E06C0C4
:1016F00028E030E005C020E130E002C020E132E027
:10170000F801B7FE07C060817181828193810C5F0F
:101710001F4F06C06081718180E090E00E5F1F4F17
:10172000A3010E94750C882E8618FB2DFF773F2E93
:1017300036FE0DC0232D2E7FA22E891458F434FEC0
:101740000BC032FC09C0832D8E7EA82E05C0B82C9C
:10175000A32C03C0B82C01C0B92CA4FE0FC0FE01FD
:10176000E80DF11D8081803321F49A2D997EA92EF8
:1017700009C0A2FE06C0B394B39404C08A2D867833
:1017800009F0B394A3FC11C0A0FE06C0B21488F403
:10179000280C922C9B180EC0B21460F4B60180E2A3
:1017A00090E00E94390CB394F7CFB21418F42B18C0
:1017B00002C0982C212CA4FE10C0B60180E390E05A
:1017C0000E94390CA2FE17C0A1FC03C088E790E07C
:1017D00002C088E590E0B6010CC08A2D867859F0E9
:1017E000A1FE02C08BE201C080E2A7FC8DE2B6013F
:1017F00090E00E94390C891438F4B60180E390E03F
:101800000E94390C9A94F7CF8A94F301E80DF11DE8
:101810008081B60190E00E94390C8110F5CF222022
:1018200009F442CEB60180E290E00E94390C2A947D
:10183000F6CFF6018681978102C08FEF9FEF2B963E
:10184000E2E10C94EF0CFC01059061507040011036
:10185000D8F7809590958E0F9F1F0895FC016150D9
:10186000704001900110D8F7809590958E0F9F1FC2
:1018700008950F931F93CF93DF93FB01238121FDE5
:1018800003C08FEF9FEF2CC022FF16C04681578107
:10189000248135814217530744F4A081B1819D0111
:1018A0002F5F3F4F318320838C93268137812F5FB9
:1018B0003F4F3783268314C08B01EC01FB0100846A
:1018C000F185E02D0995892BE1F6D80116968D91C9
:1018D0009C911797019617969C938E931697CE011D
:1018E000DF91CF911F910F910895FA01AA27283017
:1018F00051F1203181F1E8946F936E7F6E5F7F4FDD
:101900008F4F9F4FAF4FB1E03ED0B4E03CD0670F58
:10191000781F891F9A1FA11D680F791F8A1F911DAB
:10192000A11D6A0F711D811D911DA11D20D009F4FB
:1019300068943F912AE0269F11243019305D31933D
:10194000DEF6CF010895462F4770405D4193B3E026
:101950000FD0C9F7F6CF462F4F70405D4A3318F0CD
:10196000495D31FD4052419302D0A9F7EACFB4E07E
:10197000A6959795879577956795BA95C9F7009736
:101980006105710508959B01AC010A2E06945795D7
:10199000479537952795BA95C9F7620F731F841F2E
:1019A000951FA01D08952F923F924F925F926F92C4
:1019B0007F928F929F92AF92BF92CF92DF92EF92DF
:1019C000FF920F931F93CF93DF93CDB7DEB7CA1B60
:1019D000DB0B0FB6F894DEBF0FBECDBF09942A888B
:1019E000398848885F846E847D848C849B84AA8433
:1019F000B984C884DF80EE80FD800C811B81AA81C0
:101A0000B981CE0FD11D0FB6F894DEBF0FBECDBF8A
:081A1000ED010895F894FFCFE9
:101A180000006E0303006E0304006E031E006E03D5
:101A2800F8016E03F901A303FA016E03FB016E03CB
:101A38000402700325026E036E6F20686179206EC0
:101A48006164610000000000000000000000000068
:101A58000000000000000000000041542B514750D6
:101A6800534346473D227072696F72697479222C1C
:101A7800312C310041542B5153534C4346473D229E
:101A880073736C76657273696F6E222C302C343BDD
:101A98002B5153534C4346473D2263697068657226
:101AA8007375697465222C302C3078464646463B5F
:101AB8002B5153534C4346473D227365636C6576FF
:101AC800656C222C302C303B2B5153534C434647EA
:101AD8003D2269676E6F72656C6F63616C74696DC6
:101AE80065222C302C313B2B514D544346473D2227
:101AF800706470636964222C302C313B2B514D5437
:101B08004346473D2273736C222C302C312C300015
:101B180041542B51494143543D310041542B514DBF
:101B2800544F50454E3D302C22696F2E61646166DA
:101B3800727569742E636F6D222C38383833004102
:101B4800542B514D54434F4E4E3D302C2262673931
:101B580035222C226A6F736570616D62222C2222F5
:101B68000041542B514D5450554245583D302C316D
:101B78002C312C302C2200222C220041542B514D88
:101B88005450554245583D302C312C312C302C22A4
:101B98002573222C22257325642E253032642200D9
:101BA80041542B514D5450554245583D302C312C01
:101BB800312C302C222573222C22257522004154E9
:101BC8002B514D5450554245583D302C312C312C19
:101BD800302C222573222C222578220041542B51A7
:101BE8004D5450554245583D302C312C312C302C19
:101BF800222573222C222564220041542B514D5456
:101C0800434C4F53453D300041542B514D544449AA
:101C180053433D300041542B514944454143543DC1
:101C2800310041542B514D544F50454E002B514DCE
:101C3800544F50454E3A20302C30002B514D544FC4
:101C480050454E3A20302C2D31002B514D544F50D9
:101C5800454E3A20302C32002B514D544F50454EB2
:101C68003A20302C330041542B51475053454E44B1
:101C78000041542B514750533D31002D2D2D2D201F
:101C8800535441525421202D2D2D2D006A6F736518
:101C980070616D622F66656564732F77656C636F1D
:101CA8006D652D66656564007365206D6F76696F77
:101CB8006F6F004552524F52004F4B0041542B5109
:101CC8004D54434F4E4E0041542B5143454C4C000C
:101CD80041542B5148545450474554002B514D54AE
:101CE800002B514854545000434F4E4E4543540026
:101CF800415445300041542657300041542B514738
:101D08005053585452413D310041542B514943538B
:101D180047503D312C332C226D326D2E74656C6525
:101D2800322E636F6D222C22222C22222C3000416D
:101D3800542B514750534346473D227072696F7286
:101D4800697479222C312C313B2B5148545450431F
:101D580046473D22636F6E746578746964222C313E
:101D68003B2B51485454504346473D2273736C6390
:101D780074786964222C313B2B5153534C434647AA
:101D88003D2273736C76657273696F6E222C312CE9
:101D9800343B2B5153534C4346473D22636970688B
:101DA80065727375697465222C312C307846464605
:101DB800463B2B5153534C4346473D227365636C56
:101DC8006576656C222C312C303B2B5153534C4398
:101DD80046473D2273736C76657273696F6E222C69
:101DE800302C343B2B5153534C4346473D226369B7
:101DF800706865727375697465222C302C3078466A
:101E08004646463B2B5153534C4346473D22736548
:101E1800636C6576656C222C302C303B2B51535308
:101E28004C4346473D2269676E6F72656C6F63610C
:101E38006C74696D65222C302C310041542B51474C
:101E480050534346473D227072696F726974792214
:101E58002C302C300041542B514750534C4F433DAC
:101E680032002B514750534C4F433A002564202DE4
:101E7800206E6F206669780025642C006A6F736590
:101E880070616D622F66656564732F626561636F4B
:101E98006E2E74656D7065726174757265006A6F17
:101EA800736570616D622F66656564732F62656125
:101EB800636F6E2E6C69676874006A6F7365706112
:101EC8006D622F66656564732F626561636F6E2E40
:081ED8006770732F637376003D
:00000001FF
