S0110000616C6C696761746F722E7372656354
S11300000C9434000C9451000C9451000C94510045
S11300100C9451000C9451000C9451000C94510018
S11300200C9451000C9451000C9451000C94510008
S11300300C9451000C9451000C9451000C945100F8
S11300400C9451000C9451000C9451000C945100E8
S11300500C9451000C9451000C9451000C945100D8
S11300600C9451000C94510011241FBECFEFD8E022
S1130070DEBFCDBF11E0A0E0B1E0ECE5F4E002C0EA
S113008005900D92AC31B107D9F721E0ACE1B1E0B4
S113009001C01D92AD33B207E1F70E94E5010C9453
S11300A02C020C9400008F708068E1E6F0E090E888
S11300B0908380830895CF93E2EFF0E080818460A1
S11300C0C0E8C08380838FEF98E00197F1F700C008
S11300D0000080818F798062C083808300000000EB
S11300E081E090E00E945300E0EFF0E080818260C4
S11300F0C0838083CF910895BC01E9EBF0E0808157
S11301008E7F808380818D7F808380E094E20E9453
S11301101802862F603148F0772760517109CB01AE
S113012099230CF40196959587958093B8000895CA
S113013084E690E00E947C00ECEBF0E08081846037
S1130140808310921C01808181608083808180641F
S1130150808308951092C00086E08093C20088E1F5
S11301608093C1001092C50084E08093C400089578
S11301709091C00095FFFCCF8093C60008958091B4
S1130180C0008823E4F78091C6000895CF93DF93DD
S1130190EC0103C021960E94B80088818111FACF36
S11301A0DF91CF910895ECEBF0E090819F70906A1D
S11301B090839091BC009923E4F79EE49093BB0054
S11301C0ECEBF0E090819F70906890839091BC007C
S11301D09923E4F788608093BB00ECEBF0E0808126
S11301E08F70806880838091BC008823E4F7ECEBF7
S11301F0F0E080818F70806D80838091BC0084FFEB
S1130200FCCF0895CF93C82F84600E94D30083E06D
S11302108A95F1F700008C2F8B7F0E94D30089E927
S11302208A95F1F700C0CF910895CF93C82F0E940B
S1130230D3008C2F0E940201CF9108951F93CF9376
S1130240DF93162F982F907F20E1829FE0011124E5
S1130250892F862B0E9415018C2F812B0E9415015A
S1130260DF91CF911F91089560E081E00E941E010B
S11302708FEF91E10197F1F700C00000089561E06C
S11302800E941E010895CF93DF93EC0103C02196D1
S11302900E943F0188818111FACFDF91CF910895A7
S11302A02FEF87E691E0215080409040E1F700C0B5
S11302B0000060E080E30E941E012BE72A95F1F71D
S11302C060E080E20E941E0160E080E80E941E015E
S11302D08BE78A95F1F760E080E20E941E0160E0FE
S11302E080E80E941E019BE79A95F1F760E080E0A8
S11302F00E941E0160E080EF0E941E012BE72A95F8
S1130300F1F760E080E00E941E0160E080E10E945D
S11303101E018FEF91E10197F1F700C0000060E04A
S113032080E00E941E0160E080E40E941E018FEFC5
S113033091E10197F1F700C0000008951F93CF9356
S1130340DF9312E0C0E0D0E010C00E94BF008A300A
S113035039F41150FE01E35EFE4F8083219605C0FF
S1130360FE01E35EFE4F808321961111EECFDF91F3
S1130370CF911F9108950F931F93CF93DF930E9402
S1130380340102E010E0C0E0D0E017C0FE01E35EFB
S1130390FE4F80818A3039F40150110980E091E0E8
S11303A00E94430109C08D3029F483E091E00E944A
S11303B0430102C00E943F0121960115110531F746
S11303C0DF91CF911F910F9108950E945B000E94CD
S11303D0AA000E9498000E9450018AB182608AB9E2
S11303E082E08BB98FEF84B981E085B92FEF8FE07C
S11303F09EE0215080409040E1F700C0000015B815
S11304000E94340186E091E00E94430187E191E07B
S11304100E94C6000E949E010E94BB012FEF8FE044
S11304209EE0215080409040E1F700C00000EECFF4
S1130430AA1BBB1B51E107C0AA1FBB1FA617B70706
S113044010F0A61BB70B881F991F5A95A9F7809522
S10F04509095BC01CD010895F894FFCFF5
S113045C6C660063720042414C4154524F4E204929
S10F046C4E44555354520061740D0A00B4
S9030000FC
