:100000000C9434000C9451000C9451000C94510049
:100010000C9451000C9451000C9451000C9451001C
:100020000C9451000C9451000C9451000C9451000C
:100030000C9451000C9451000C9451000C945100FC
:100040000C9451000C9451000C9451000C945100EC
:100050000C9451000C9451000C9451000C945100DC
:100060000C9451000C94510011241FBECFEFD8E026
:10007000DEBFCDBF11E0A0E0B1E0E4E3F1E002C0FB
:1000800005900D92A630B107D9F721E0A6E0B1E0C6
:1000900001C01D92A630B207E1F70E9475000C94D2
:1000A00098000C9400001092C00086E08093C2007B
:1000B00088E18093C1001092C50081E08093C40064
:1000C00008959091C00095FFFCCF8093C6000895DD
:1000D000CF93DF93EC0103C021960E9461008881D9
:1000E0008111FACFDF91CF9108950E9453008AB118
:1000F00082608AB982E08BB98FEF84B981E085B9DB
:100100002FE78AE196E0215080409040E1F700C05F
:10011000000015B880E091E00E9468002FE788E3B6
:1001200091E0215080409040E1F700C00000F2CF04
:04013000F894FFCF71
:060134004154490A0000DD
:00000001FF
