S0110000616C6C696761746F722E7372656354
S11300000C9434000C9451000C9451000C94510045
S11300100C9451000C9451000C9451000C94510018
S11300200C9451000C9451000C9451000C94510008
S11300300C9451000C9451000C9451000C945100F8
S11300400C9451000C9451000C9451000C945100E8
S11300500C9451000C9451000C9451000C945100D8
S11300600C9451000C94510011241FBECFEFD8E022
S1130070DEBFCDBF11E0A0E0B1E0E0E1F3E002C0FB
S113008005900D92A431B107D9F721E0A4E1B1E0C4
S113009001C01D92A531B207E1F70E944B010C94F7
S11300A086010C940000BC01E9EBF0E080818E7FB6
S11300B0808380818D7F808380EA9FE00E9472012B
S11300C0862F603148F0772760517109CB0199235D
S11300D00CF40196959587958093B800089580E96E
S11300E091E00E945300ECEBF0E080818460808317
S11300F01092140180818160808380818064808378
S11301000895ECEBF0E090819F70906A9083909159
S1130110BC009923E4F79EE49093BB00ECEBF0E081
S113012090819F70906890839091BC009923E4F72C
S113013088608093BB00ECEBF0E080818F70806876
S113014080838091BC008823E4F7ECEBF0E08081AD
S11301508F70806D80838091BC0084FFFCCF0895F4
S1130160CF93C82F84600E94810000C000C08C2FF0
S11301708B7F0E94810082E48A95F1F700C0CF91C1
S11301800895CF93C82F0E9481008C2F0E94B00045
S1130190CF9108951F93CF93DF93162F982F907FBD
S11301A020E1829FE0011124892F862B0E94C10047
S11301B08C2F812B0E94C100DF91CF911F91089554
S11301C060E081E00E94CA008FEC97E00197F1F7AC
S11301D000C00000089561E00E94CA000895CF9312
S11301E0DF93EC0103C021960E94EB00888181110A
S11301F0FACFDF91CF9108958FE493EC0197F1F753
S113020000C0000060E080E30E94CA0095E39A9574
S1130210F1F7000060E080E20E94CA0060E080E83C
S11302200E94CA0085E38A95F1F7000060E080E24D
S11302300E94CA0060E080E80E94CA0095E39A9593
S1130240F1F7000060E080E00E94CA0060E080EF07
S11302500E94CA0085E38A95F1F7000060E080E01F
S11302600E94CA0060E080E10E94CA008FEC97E01F
S11302700197F1F700C0000060E080E00E94CA002E
S113028060E080E40E94CA008FEC97E00197F1F7E8
S113029000C0000008950E946F008AB182608AB98C
S11302A082E08BB98FEF84B981E085B92FE78AE1C9
S11302B096E0215080409040E1F700C0000015B85E
S11302C00E94FC000E94E00080E091E00E94EF00A8
S11302D02FEF80E792E0215080409040E1F700C08A
S11302E00000F6CFAA1BBB1B51E107C0AA1FBB1F0E
S11302F0A617B70710F0A61BB70B881F991F5A95AE
S1130300A9F780959095BC01CD010895F894FFCF8D
S113031042616C6174726F6E20494E44555354525D
S107032049414C00FF
S9030000FC
