:100000000C9442000C945F000C945F000C945F0011
:100010000C945F000C945F000C945F000C945F00E4
:100020000C945F000C945F000C945F000C945F00D4
:100030000C945F000C945F000C945F000C945F00C4
:100040000C945F000C945F000C945F000C945F00B4
:100050000C945F000C945F000C945F000C945F00A4
:100060000C945F000C945F00AE2002B0C8001040FA
:10007000813FA1A6A83FA4D300D5F0D922DA12DB94
:10008000208D140011241FBECFEFD8E0DEBFCDBFFE
:1000900011E0A0E0B1E0ECE6F4E002C005900D92C2
:1000A000A430B107D9F721E0A4E0B1E001C01D926E
:1000B000A532B207E1F70E94EF000C9434020C94D1
:1000C0000000BC01E9EBF0E080818E7F80838081BD
:1000D0008D7F808380EA9FE00E942002862F60311E
:1000E00048F0772760517109CB0199230CF40196F0
:1000F000959587958093B800089580E991E00E94D6
:100100006100ECEBF0E08081846080831092040158
:1001100080818160808380818064808308951092D3
:10012000C00086E08093C20088E18093C1001092F5
:10013000C50081E08093C40008959091C00095FFB0
:10014000FCCF8093C60008958091C0008823E4F717
:100150008091C6000895CF93DF93EC0103C02196F0
:100160000E949D0088818111FACFDF91CF9108957F
:100170001F93CF93DF9312E0C0E0D0E010C00E9445
:10018000A4008A3039F41150FE01EB5FFE4F8083EA
:10019000219605C0FE01EB5FFE4F80832196111171
:1001A000EECFDF91CF911F9108950F931F93CF93BF
:1001B000C0E000E010E00DC0F801EB5FFE4FC08131
:1001C0000F5F1F4FCD3029F0CA3019F08C2F0E94DD
:1001D0005801CA3089F7CF911F910F9108950E945D
:1001E0008F000E947D008AB182608AB982E08BB95B
:1001F0008FEF84B981E085B92FE78AE196E021503D
:1002000080409040E1F700C0000015B88FEA0E94DE
:10021000D70180E00E94020280E091E00E94AB00E2
:100220002FE788E391E0215080409040E1F700C043
:1002300000000E94B8000E94D500EECFECEBF0E089
:1002400090819F70906A90839091BC009923E4F70D
:1002500098E79093BB00ECEBF0E090819F70906882
:1002600090839091BC009923E4F71092BB00ECEBD3
:10027000F0E090819F70906890839091BC009923EA
:10028000E4F78093BB00ECEBF0E080818F70806836
:1002900080838091BC008823E4F7ECEBF0E0808160
:1002A0008F70806D80838091BC0084FFFCCF0895A7
:1002B000ECEBF0E090819F70906A90839091BC008D
:1002C0009923E4F798E79093BB00ECEBF0E0908182
:1002D0009F70906890839091BC009923E4F790E41C
:1002E0009093BB00ECEBF0E090819F70906890835E
:1002F0009091BC009923E4F78093BB00ECEBF0E015
:1003000080818F70806880838091BC008823E4F7AF
:10031000ECEBF0E080818F70806D80838091BC0079
:1003200084FFFCCF0895AC01ECEBF0E080818F708E
:10033000806A80839091BC009923E4F788E78093DA
:10034000BB00ECEBF0E080818F708068808390913F
:10035000BC009923E4F71092BB00ECEBF0E0808145
:100360008F70806880839091BC009923E4F720E02F
:1003700011C0FA01E20FF11D90819093BB00ECEBEC
:10038000F0E090819F70906890839091BC009923D9
:10039000E4F72F5F261768F3ECEBF0E080818F70B5
:1003A000806D80838091BC0084FFFCCF0895CF9343
:1003B000DF93CDB7DEB76C970FB6F894DEBF0FBEF4
:1003C000CDBF90E00EC0292F30E0F901E859FF4F72
:1003D000E491A1E0B0E0AC0FBD1FA20FB31FEC93FE
:1003E0009F5F9B3180F38C8F6CE1CE0101960E9460
:1003F00093016C960FB6F894DEBF0FBECDBFDF91B0
:10040000CF9108951F93CF93DF93D82F10EB12C095
:10041000812F0E941E0182E00E941E0180E10E9445
:100420001E01C0E004C08D2F0E945801CF5FC43868
:10043000D0F31F5F183B60F3DF91CF911F910895B8
:10044000AA1BBB1B51E107C0AA1FBB1FA617B707FA
:1004500010F0A61BB70B881F991F5A95A9F7809516
:0C0460009095BC01CD010895F894FFCFE9
:04046C0041540A00ED
:00000001FF
