:100000000C9434000C9451000C9451000C94510049
:100010000C9451000C9451000C948A000C945100E3
:100020000C9451000C9451000C9451000C9451000C
:100030000C9451000C9451000C9451000C945100FC
:100040000C9451000C9451000C9451000C945100EC
:100050000C9451000C9451000C9451000C945100DC
:100060000C9451000C94510011241FBECFEFD8E026
:10007000DEBFCDBF11E0A0E0B1E0EEE5F2E002C0EE
:1000800005900D92A030B107D9F721E0A0E0B1E0D2
:1000900001C01D92A532B207E1F70E94D7000C946F
:1000A0002D010C9400008F708068E1E6F0E090E88C
:1000B000908380830895CF93E2EFF0E080818460A5
:1000C000C0E8C08380838FEF98E00197F1F700C00C
:1000D000000080818F798062C083808300000000EF
:1000E00081E090E00E945300E0EFF0E080818260C8
:1000F000C0838083CF9108951092C00086E08093E2
:10010000C20088E18093C1001092C50084E0809312
:10011000C40008951F920F920FB60F9211242F93CF
:100120003F938F939F93EF93FF93E0E6F0E08081FE
:10013000806880838091230190912401019690939F
:1001400024018093230120910001309101012F5F50
:100150003F4F30930101209300012A30310539F4DB
:10016000109201011092000121E0209302014097BA
:1001700039F4109224011092230182E0809302014D
:1001800085B1806285B98FEF90EE0197F1F700C0DD
:10019000000085B18F7D85B9FF91EF919F918F917F
:1001A0003F912F910F900FBE0F901F9018951092B6
:1001B000010110920001109224011092230110926B
:1001C0000201E2EFF0E08081806190E8908380831B
:1001D0000E945B000E947C00F894A895E0E6F0E0A5
:1001E00080818861808384EC8083789485E083BFFC
:1001F0008FEF84B981E085B92FEF8FE09EE0215029
:1002000080409040E1F700C0000015B88AB18260DC
:100210008AB982E08BB980910201813049F028F0DF
:10022000823059F0833071F012C081E085B911C07D
:1002300082E085B9109202010CC084E085B9109269
:10024000020107C088E085B91092020102C0109235
:0E0250000201889500000000DECFF894FFCF79
:00000001FF
